{
  "_format": "hh-sol-artifact-1",
  "contractName": "DataMarketplace",
  "sourceName": "contracts/DataMarketplace.sol",
  "abi": [
    {
      "inputs": [],
      "stateMutability": "nonpayable",
      "type": "constructor"
    },
    {
      "anonymous": false,
      "inputs": [
        {
          "indexed": true,
          "internalType": "uint256",
          "name": "id",
          "type": "uint256"
        },
        {
          "indexed": false,
          "internalType": "string",
          "name": "name",
          "type": "string"
        },
        {
          "indexed": false,
          "internalType": "uint256",
          "name": "price",
          "type": "uint256"
        }
      ],
      "name": "DatasetRegistered",
      "type": "event"
    },
    {
      "anonymous": false,
      "inputs": [
        {
          "indexed": true,
          "internalType": "uint256",
          "name": "purchaseId",
          "type": "uint256"
        },
        {
          "indexed": true,
          "internalType": "address",
          "name": "buyer",
          "type": "address"
        },
        {
          "indexed": true,
          "internalType": "uint256",
          "name": "datasetId",
          "type": "uint256"
        }
      ],
      "name": "PurchaseRecorded",
      "type": "event"
    },
    {
      "anonymous": false,
      "inputs": [
        {
          "indexed": true,
          "internalType": "address",
          "name": "recorder",
          "type": "address"
        },
        {
          "indexed": false,
          "internalType": "bool",
          "name": "authorized",
          "type": "bool"
        }
      ],
      "name": "RecorderAuthorizationUpdated",
      "type": "event"
    },
    {
      "inputs": [
        {
          "internalType": "address",
          "name": "",
          "type": "address"
        }
      ],
      "name": "authorizedRecorders",
      "outputs": [
        {
          "internalType": "bool",
          "name": "",
          "type": "bool"
        }
      ],
      "stateMutability": "view",
      "type": "function"
    },
    {
      "inputs": [
        {
          "internalType": "uint256",
          "name": "id",
          "type": "uint256"
        }
      ],
      "name": "getDataset",
      "outputs": [
        {
          "components": [
            {
              "internalType": "string",
              "name": "name",
              "type": "string"
            },
            {
              "internalType": "string",
              "name": "description",
              "type": "string"
            },
            {
              "internalType": "uint256",
              "name": "price",
              "type": "uint256"
            },
            {
              "internalType": "bool",
              "name": "active",
              "type": "bool"
            }
          ],
          "internalType": "struct DataMarketplace.Dataset",
          "name": "",
          "type": "tuple"
        }
      ],
      "stateMutability": "view",
      "type": "function"
    },
    {
      "inputs": [],
      "name": "getDatasetCount",
      "outputs": [
        {
          "internalType": "uint256",
          "name": "",
          "type": "uint256"
        }
      ],
      "stateMutability": "view",
      "type": "function"
    },
    {
      "inputs": [
        {
          "internalType": "uint256",
          "name": "id",
          "type": "uint256"
        }
      ],
      "name": "getPurchase",
      "outputs": [
        {
          "components": [
            {
              "internalType": "address",
              "name": "buyer",
              "type": "address"
            },
            {
              "internalType": "uint256",
              "name": "datasetId",
              "type": "uint256"
            },
            {
              "internalType": "uint256",
              "name": "pricePaid",
              "type": "uint256"
            },
            {
              "internalType": "bytes32",
              "name": "queryHash",
              "type": "bytes32"
            },
            {
              "internalType": "uint256",
              "name": "timestamp",
              "type": "uint256"
            }
          ],
          "internalType": "struct DataMarketplace.Purchase",
          "name": "",
          "type": "tuple"
        }
      ],
      "stateMutability": "view",
      "type": "function"
    },
    {
      "inputs": [
        {
          "internalType": "address",
          "name": "buyer",
          "type": "address"
        }
      ],
      "name": "getPurchasesByBuyer",
      "outputs": [
        {
          "internalType": "uint256[]",
          "name": "",
          "type": "uint256[]"
        }
      ],
      "stateMutability": "view",
      "type": "function"
    },
    {
      "inputs": [],
      "name": "getTotalPurchases",
      "outputs": [
        {
          "internalType": "uint256",
          "name": "",
          "type": "uint256"
        }
      ],
      "stateMutability": "view",
      "type": "function"
    },
    {
      "inputs": [],
      "name": "owner",
      "outputs": [
        {
          "internalType": "address",
          "name": "",
          "type": "address"
        }
      ],
      "stateMutability": "view",
      "type": "function"
    },
    {
      "inputs": [
        {
          "internalType": "address",
          "name": "buyer",
          "type": "address"
        },
        {
          "internalType": "uint256",
          "name": "datasetId",
          "type": "uint256"
        },
        {
          "internalType": "uint256",
          "name": "pricePaid",
          "type": "uint256"
        },
        {
          "internalType": "bytes32",
          "name": "queryHash",
          "type": "bytes32"
        }
      ],
      "name": "recordPurchase",
      "outputs": [],
      "stateMutability": "nonpayable",
      "type": "function"
    },
    {
      "inputs": [
        {
          "internalType": "string",
          "name": "name",
          "type": "string"
        },
        {
          "internalType": "string",
          "name": "description",
          "type": "string"
        },
        {
          "internalType": "uint256",
          "name": "price",
          "type": "uint256"
        }
      ],
      "name": "registerDataset",
      "outputs": [],
      "stateMutability": "nonpayable",
      "type": "function"
    },
    {
      "inputs": [
        {
          "internalType": "address",
          "name": "recorder",
          "type": "address"
        },
        {
          "internalType": "bool",
          "name": "authorized",
          "type": "bool"
        }
      ],
      "name": "setRecorder",
      "outputs": [],
      "stateMutability": "nonpayable",
      "type": "function"
    }
  ],
  "bytecode": "0x608060405234801561001057600080fd5b50336000806101000a81548173ffffffffffffffffffffffffffffffffffffffff021916908373ffffffffffffffffffffffffffffffffffffffff160217905550611cc1806100606000396000f3fe608060405234801561001057600080fd5b506004361061009e5760003560e01c80637d690e0a116100665780637d690e0a146101455780638da5cb5b14610175578063ac9a5e9a14610193578063ea04f155146101c3578063ee004221146101e15761009e565b80632f5201bd146100a35780633742a9f7146100c157806348c28448146100f15780635a9954dc1461010d5780636b39349f14610129575b600080fd5b6100ab610211565b6040516100b89190610e7a565b60405180910390f35b6100db60048036038101906100d69190610ecb565b61021e565b6040516100e89190610fc9565b60405180910390f35b61010b60048036038101906101069190611049565b61031f565b005b61012760048036038101906101229190611136565b6105b3565b005b610143600480360381019061013e91906111d5565b610995565b005b61015f600480360381019061015a9190611215565b610b3b565b60405161016c91906112f1565b60405180910390f35b61017d610bd2565b60405161018a9190611322565b60405180910390f35b6101ad60048036038101906101a89190611215565b610bf6565b6040516101ba919061134c565b60405180910390f35b6101cb610c16565b6040516101d89190610e7a565b60405180910390f35b6101fb60048036038101906101f69190610ecb565b610c23565b6040516102089190611470565b60405180910390f35b6000600180549050905090565b610226610def565b600280549050821061026d576040517f08c379a000000000000000000000000000000000000000000000000000000000815260040161026490611515565b60405180910390fd5b6002828154811061028157610280611535565b5b90600052602060002090600502016040518060a00160405290816000820160009054906101000a900473ffffffffffffffffffffffffffffffffffffffff1673ffffffffffffffffffffffffffffffffffffffff1673ffffffffffffffffffffffffffffffffffffffff1681526020016001820154815260200160028201548152602001600382015481526020016004820154815250509050919050565b60008054906101000a900473ffffffffffffffffffffffffffffffffffffffff1673ffffffffffffffffffffffffffffffffffffffff163373ffffffffffffffffffffffffffffffffffffffff16146103ad576040517f08c379a00000000000000000000000000000000000000000000000000000000081526004016103a4906115b0565b60405180910390fd5b600085859050116103f3576040517f08c379a00000000000000000000000000000000000000000000000000000000081526004016103ea9061161c565b60405180910390fd5b60008111610436576040517f08c379a000000000000000000000000000000000000000000000000000000000815260040161042d90611688565b60405180910390fd5b600060018054905090506001604051806080016040528088888080601f016020809104026020016040519081016040528093929190818152602001838380828437600081840152601f19601f82011690508083019250505050505050815260200186868080601f016020809104026020016040519081016040528093929190818152602001838380828437600081840152601f19601f820116905080830192505050505050508152602001848152602001600115158152509080600181540180825580915050600190039060005260206000209060040201600090919091909150600082015181600001908161052c91906118e3565b50602082015181600101908161054291906118e3565b506040820151816002015560608201518160030160006101000a81548160ff0219169083151502179055505050807fa24cd12f5501ed19c3f895d051a73257b843bf8fc83a456f1c41e7e0358d6df08787856040516105a3939291906119f1565b60405180910390a2505050505050565b60008054906101000a900473ffffffffffffffffffffffffffffffffffffffff1673ffffffffffffffffffffffffffffffffffffffff163373ffffffffffffffffffffffffffffffffffffffff1614806106565750600460003373ffffffffffffffffffffffffffffffffffffffff1673ffffffffffffffffffffffffffffffffffffffff16815260200190815260200160002060009054906101000a900460ff165b610695576040517f08c379a000000000000000000000000000000000000000000000000000000000815260040161068c90611a95565b60405180910390fd5b600073ffffffffffffffffffffffffffffffffffffffff168473ffffffffffffffffffffffffffffffffffffffff1603610704576040517f08c379a00000000000000000000000000000000000000000000000000000000081526004016106fb90611b01565b60405180910390fd5b600180549050831061074b576040517f08c379a000000000000000000000000000000000000000000000000000000000815260040161074290611b6d565b60405180910390fd5b6001838154811061075f5761075e611535565b5b906000526020600020906004020160030160009054906101000a900460ff166107bd576040517f08c379a00000000000000000000000000000000000000000000000000000000081526004016107b490611bff565b60405180910390fd5b60008211610800576040517f08c379a00000000000000000000000000000000000000000000000000000000081526004016107f790611688565b60405180910390fd5b6000600280549050905060026040518060a001604052808773ffffffffffffffffffffffffffffffffffffffff16815260200186815260200185815260200184815260200142815250908060018154018082558091505060019003906000526020600020906005020160009091909190915060008201518160000160006101000a81548173ffffffffffffffffffffffffffffffffffffffff021916908373ffffffffffffffffffffffffffffffffffffffff160217905550602082015181600101556040820151816002015560608201518160030155608082015181600401555050600360008673ffffffffffffffffffffffffffffffffffffffff1673ffffffffffffffffffffffffffffffffffffffff168152602001908152602001600020819080600181540180825580915050600190039060005260206000200160009091909190915055838573ffffffffffffffffffffffffffffffffffffffff16827ff9cfdb581848f49f8234b12f71a1750070663f60ca5446ae62cc3cd97a3760b460405160405180910390a45050505050565b60008054906101000a900473ffffffffffffffffffffffffffffffffffffffff1673ffffffffffffffffffffffffffffffffffffffff163373ffffffffffffffffffffffffffffffffffffffff1614610a23576040517f08c379a0000000000000000000000000000000000000000000000000000000008152600401610a1a906115b0565b60405180910390fd5b600073ffffffffffffffffffffffffffffffffffffffff168273ffffffffffffffffffffffffffffffffffffffff1603610a92576040517f08c379a0000000000000000000000000000000000000000000000000000000008152600401610a8990611c6b565b60405180910390fd5b80600460008473ffffffffffffffffffffffffffffffffffffffff1673ffffffffffffffffffffffffffffffffffffffff16815260200190815260200160002060006101000a81548160ff0219169083151502179055508173ffffffffffffffffffffffffffffffffffffffff167f61e58eddcd9737a9a5f8d088bc81eda073e7fcf904cdc8add21fa4bb4257265282604051610b2f919061134c565b60405180910390a25050565b6060600360008373ffffffffffffffffffffffffffffffffffffffff1673ffffffffffffffffffffffffffffffffffffffff168152602001908152602001600020805480602002602001604051908101604052809291908181526020018280548015610bc657602002820191906000526020600020905b815481526020019060010190808311610bb2575b50505050509050919050565b60008054906101000a900473ffffffffffffffffffffffffffffffffffffffff1681565b60046020528060005260406000206000915054906101000a900460ff1681565b6000600280549050905090565b610c2b610e37565b6001805490508210610c72576040517f08c379a0000000000000000000000000000000000000000000000000000000008152600401610c6990611b6d565b60405180910390fd5b60018281548110610c8657610c85611535565b5b9060005260206000209060040201604051806080016040529081600082018054610caf90611706565b80601f0160208091040260200160405190810160405280929190818152602001828054610cdb90611706565b8015610d285780601f10610cfd57610100808354040283529160200191610d28565b820191906000526020600020905b815481529060010190602001808311610d0b57829003601f168201915b50505050508152602001600182018054610d4190611706565b80601f0160208091040260200160405190810160405280929190818152602001828054610d6d90611706565b8015610dba5780601f10610d8f57610100808354040283529160200191610dba565b820191906000526020600020905b815481529060010190602001808311610d9d57829003601f168201915b50505050508152602001600282015481526020016003820160009054906101000a900460ff1615151515815250509050919050565b6040518060a00160405280600073ffffffffffffffffffffffffffffffffffffffff168152602001600081526020016000815260200160008019168152602001600081525090565b60405180608001604052806060815260200160608152602001600081526020016000151581525090565b6000819050919050565b610e7481610e61565b82525050565b6000602082019050610e8f6000830184610e6b565b92915050565b600080fd5b600080fd5b610ea881610e61565b8114610eb357600080fd5b50565b600081359050610ec581610e9f565b92915050565b600060208284031215610ee157610ee0610e95565b5b6000610eef84828501610eb6565b91505092915050565b600073ffffffffffffffffffffffffffffffffffffffff82169050919050565b6000610f2382610ef8565b9050919050565b610f3381610f18565b82525050565b610f4281610e61565b82525050565b6000819050919050565b610f5b81610f48565b82525050565b60a082016000820151610f776000850182610f2a565b506020820151610f8a6020850182610f39565b506040820151610f9d6040850182610f39565b506060820151610fb06060850182610f52565b506080820151610fc36080850182610f39565b50505050565b600060a082019050610fde6000830184610f61565b92915050565b600080fd5b600080fd5b600080fd5b60008083601f84011261100957611008610fe4565b5b8235905067ffffffffffffffff81111561102657611025610fe9565b5b60208301915083600182028301111561104257611041610fee565b5b9250929050565b60008060008060006060868803121561106557611064610e95565b5b600086013567ffffffffffffffff81111561108357611082610e9a565b5b61108f88828901610ff3565b9550955050602086013567ffffffffffffffff8111156110b2576110b1610e9a565b5b6110be88828901610ff3565b935093505060406110d188828901610eb6565b9150509295509295909350565b6110e781610f18565b81146110f257600080fd5b50565b600081359050611104816110de565b92915050565b61111381610f48565b811461111e57600080fd5b50565b6000813590506111308161110a565b92915050565b600080600080608085870312156111505761114f610e95565b5b600061115e878288016110f5565b945050602061116f87828801610eb6565b935050604061118087828801610eb6565b925050606061119187828801611121565b91505092959194509250565b60008115159050919050565b6111b28161119d565b81146111bd57600080fd5b50565b6000813590506111cf816111a9565b92915050565b600080604083850312156111ec576111eb610e95565b5b60006111fa858286016110f5565b925050602061120b858286016111c0565b9150509250929050565b60006020828403121561122b5761122a610e95565b5b6000611239848285016110f5565b91505092915050565b600081519050919050565b600082825260208201905092915050565b6000819050602082019050919050565b600061127a8383610f39565b60208301905092915050565b6000602082019050919050565b600061129e82611242565b6112a8818561124d565b93506112b38361125e565b8060005b838110156112e45781516112cb888261126e565b97506112d683611286565b9250506001810190506112b7565b5085935050505092915050565b6000602082019050818103600083015261130b8184611293565b905092915050565b61131c81610f18565b82525050565b60006020820190506113376000830184611313565b92915050565b6113468161119d565b82525050565b6000602082019050611361600083018461133d565b92915050565b600081519050919050565b600082825260208201905092915050565b60005b838110156113a1578082015181840152602081019050611386565b60008484015250505050565b6000601f19601f8301169050919050565b60006113c982611367565b6113d38185611372565b93506113e3818560208601611383565b6113ec816113ad565b840191505092915050565b6114008161119d565b82525050565b6000608083016000830151848203600086015261142382826113be565b9150506020830151848203602086015261143d82826113be565b91505060408301516114526040860182610f39565b50606083015161146560608601826113f7565b508091505092915050565b6000602082019050818103600083015261148a8184611406565b905092915050565b600082825260208201905092915050565b7f446174614d61726b6574706c6163653a20696e76616c6964207075726368617360008201527f6500000000000000000000000000000000000000000000000000000000000000602082015250565b60006114ff602183611492565b915061150a826114a3565b604082019050919050565b6000602082019050818103600083015261152e816114f2565b9050919050565b7f4e487b7100000000000000000000000000000000000000000000000000000000600052603260045260246000fd5b7f446174614d61726b6574706c6163653a206e6f74206f776e6572000000000000600082015250565b600061159a601a83611492565b91506115a582611564565b602082019050919050565b600060208201905081810360008301526115c98161158d565b9050919050565b7f446174614d61726b6574706c6163653a20656d707479206e616d650000000000600082015250565b6000611606601b83611492565b9150611611826115d0565b602082019050919050565b60006020820190508181036000830152611635816115f9565b9050919050565b7f446174614d61726b6574706c6163653a207a65726f2070726963650000000000600082015250565b6000611672601b83611492565b915061167d8261163c565b602082019050919050565b600060208201905081810360008301526116a181611665565b9050919050565b7f4e487b7100000000000000000000000000000000000000000000000000000000600052604160045260246000fd5b7f4e487b7100000000000000000000000000000000000000000000000000000000600052602260045260246000fd5b6000600282049050600182168061171e57607f821691505b602082108103611731576117306116d7565b5b50919050565b60008190508160005260206000209050919050565b60006020601f8301049050919050565b600082821b905092915050565b6000600883026117997fffffffffffffffffffffffffffffffffffffffffffffffffffffffffffffffff8261175c565b6117a3868361175c565b95508019841693508086168417925050509392505050565b6000819050919050565b60006117e06117db6117d684610e61565b6117bb565b610e61565b9050919050565b6000819050919050565b6117fa836117c5565b61180e611806826117e7565b848454611769565b825550505050565b600090565b611823611816565b61182e8184846117f1565b505050565b5b818110156118525761184760008261181b565b600181019050611834565b5050565b601f8211156118975761186881611737565b6118718461174c565b81016020851015611880578190505b61189461188c8561174c565b830182611833565b50505b505050565b600082821c905092915050565b60006118ba6000198460080261189c565b1980831691505092915050565b60006118d383836118a9565b9150826002028217905092915050565b6118ec82611367565b67ffffffffffffffff811115611905576119046116a8565b5b61190f8254611706565b61191a828285611856565b600060209050601f83116001811461194d576000841561193b578287015190505b61194585826118c7565b8655506119ad565b601f19841661195b86611737565b60005b828110156119835784890151825560018201915060208501945060208101905061195e565b868310156119a0578489015161199c601f8916826118a9565b8355505b6001600288020188555050505b505050505050565b82818337600083830152505050565b60006119d08385611492565b93506119dd8385846119b5565b6119e6836113ad565b840190509392505050565b60006040820190508181036000830152611a0c8185876119c4565b9050611a1b6020830184610e6b565b949350505050565b7f446174614d61726b6574706c6163653a206e6f7420617574686f72697a65642060008201527f7265636f72646572000000000000000000000000000000000000000000000000602082015250565b6000611a7f602883611492565b9150611a8a82611a23565b604082019050919050565b60006020820190508181036000830152611aae81611a72565b9050919050565b7f446174614d61726b6574706c6163653a207a65726f2062757965720000000000600082015250565b6000611aeb601b83611492565b9150611af682611ab5565b602082019050919050565b60006020820190508181036000830152611b1a81611ade565b9050919050565b7f446174614d61726b6574706c6163653a20696e76616c69642064617461736574600082015250565b6000611b57602083611492565b9150611b6282611b21565b602082019050919050565b60006020820190508181036000830152611b8681611b4a565b9050919050565b7f446174614d61726b6574706c6163653a20696e6163746976652064617461736560008201527f7400000000000000000000000000000000000000000000000000000000000000602082015250565b6000611be9602183611492565b9150611bf482611b8d565b604082019050919050565b60006020820190508181036000830152611c1881611bdc565b9050919050565b7f446174614d61726b6574706c6163653a207a65726f207265636f726465720000600082015250565b6000611c55601e83611492565b9150611c6082611c1f565b602082019050919050565b60006020820190508181036000830152611c8481611c48565b905091905056fea2646970667358221220167b4b71e5979661b846a3dc62454cd154d60c62eea2347f954d5556c465303964736f6c63430008140033",
  "linkReferences": {},
  "deployedLinkReferences": {}
}